{
  "contractName": "Ledger",
  "abi": [
    {
      "anonymous": false,
      "inputs": [
        {
          "indexed": true,
          "internalType": "uint256",
          "name": "date",
          "type": "uint256"
        },
        {
          "indexed": true,
          "internalType": "address",
          "name": "from",
          "type": "address"
        },
        {
          "indexed": false,
          "internalType": "uint256",
          "name": "loan_amount",
          "type": "uint256"
        },
        {
          "indexed": false,
          "internalType": "uint256",
          "name": "loan_cap",
          "type": "uint256"
        }
      ],
      "name": "EntryCreate",
      "type": "event"
    },
    {
      "anonymous": false,
      "inputs": [
        {
          "indexed": true,
          "internalType": "uint256",
          "name": "date",
          "type": "uint256"
        },
        {
          "indexed": true,
          "internalType": "address",
          "name": "from",
          "type": "address"
        },
        {
          "indexed": true,
          "internalType": "string",
          "name": "collateralID",
          "type": "string"
        }
      ],
      "name": "EntryCreateCollateral",
      "type": "event"
    },
    {
      "anonymous": false,
      "inputs": [
        {
          "indexed": true,
          "internalType": "uint256",
          "name": "date",
          "type": "uint256"
        },
        {
          "indexed": true,
          "internalType": "address",
          "name": "from",
          "type": "address"
        },
        {
          "indexed": false,
          "internalType": "address",
          "name": "to",
          "type": "address"
        },
        {
          "indexed": true,
          "internalType": "string",
          "name": "collateralID",
          "type": "string"
        }
      ],
      "name": "EntryTransfer",
      "type": "event"
    },
    {
      "anonymous": false,
      "inputs": [
        {
          "indexed": true,
          "internalType": "uint256",
          "name": "date",
          "type": "uint256"
        },
        {
          "indexed": true,
          "internalType": "address",
          "name": "from",
          "type": "address"
        },
        {
          "indexed": false,
          "internalType": "uint256",
          "name": "paying",
          "type": "uint256"
        },
        {
          "indexed": false,
          "internalType": "uint256",
          "name": "remaining",
          "type": "uint256"
        }
      ],
      "name": "LogPayment",
      "type": "event"
    },
    {
      "inputs": [],
      "name": "destroy",
      "outputs": [],
      "stateMutability": "nonpayable",
      "type": "function"
    },
    {
      "inputs": [],
      "name": "owner",
      "outputs": [
        {
          "internalType": "address payable",
          "name": "",
          "type": "address"
        }
      ],
      "stateMutability": "view",
      "type": "function"
    },
    {
      "inputs": [
        {
          "internalType": "address",
          "name": "from",
          "type": "address"
        },
        {
          "internalType": "uint256",
          "name": "loan_amount",
          "type": "uint256"
        }
      ],
      "name": "addBorrower",
      "outputs": [],
      "stateMutability": "nonpayable",
      "type": "function"
    },
    {
      "inputs": [
        {
          "internalType": "address",
          "name": "from",
          "type": "address"
        },
        {
          "internalType": "string",
          "name": "collateralID",
          "type": "string"
        }
      ],
      "name": "addCollateral",
      "outputs": [],
      "stateMutability": "nonpayable",
      "type": "function"
    },
    {
      "inputs": [
        {
          "internalType": "address",
          "name": "from",
          "type": "address"
        },
        {
          "internalType": "uint256",
          "name": "amount",
          "type": "uint256"
        },
        {
          "internalType": "uint256",
          "name": "remaining",
          "type": "uint256"
        }
      ],
      "name": "recordPayment",
      "outputs": [],
      "stateMutability": "nonpayable",
      "type": "function"
    },
    {
      "inputs": [
        {
          "internalType": "address",
          "name": "from",
          "type": "address"
        },
        {
          "internalType": "address",
          "name": "to",
          "type": "address"
        },
        {
          "internalType": "string",
          "name": "collateralID",
          "type": "string"
        }
      ],
      "name": "transferItem",
      "outputs": [],
      "stateMutability": "nonpayable",
      "type": "function"
    }
  ],
  "bytecode": "0x608060405234801561001057600080fd5b50336000806101000a81548173ffffffffffffffffffffffffffffffffffffffff021916908373ffffffffffffffffffffffffffffffffffffffff1602179055506109ad806100606000396000f3fe608060405234801561001057600080fd5b50600436106100625760003560e01c806302422a2a146100675780636abb999e146100b557806383197ef0146101905780638da5cb5b1461019a578063cc9d6dff146101ce578063ceb9551614610226575b600080fd5b6100b36004803603604081101561007d57600080fd5b81019080803573ffffffffffffffffffffffffffffffffffffffff16906020019092919080359060200190929190505050610321565b005b61018e600480360360408110156100cb57600080fd5b81019080803573ffffffffffffffffffffffffffffffffffffffff1690602001909291908035906020019064010000000081111561010857600080fd5b82018360208201111561011a57600080fd5b8035906020019184600183028401116401000000008311171561013c57600080fd5b91908080601f016020809104026020016040519081016040528093929190818152602001838380828437600081840152601f19601f820116905080830192505050505050509192919290505050610446565b005b6101986105b0565b005b6101a26106aa565b604051808273ffffffffffffffffffffffffffffffffffffffff16815260200191505060405180910390f35b610224600480360360608110156101e457600080fd5b81019080803573ffffffffffffffffffffffffffffffffffffffff16906020019092919080359060200190929190803590602001909291905050506106ce565b005b61031f6004803603606081101561023c57600080fd5b81019080803573ffffffffffffffffffffffffffffffffffffffff169060200190929190803573ffffffffffffffffffffffffffffffffffffffff1690602001909291908035906020019064010000000081111561029957600080fd5b8201836020820111156102ab57600080fd5b803590602001918460018302840111640100000000831117156102cd57600080fd5b91908080601f016020809104026020016040519081016040528093929190818152602001838380828437600081840152601f19601f8201169050808301925050505050505091929192905050506107eb565b005b60008054906101000a900473ffffffffffffffffffffffffffffffffffffffff1673ffffffffffffffffffffffffffffffffffffffff163373ffffffffffffffffffffffffffffffffffffffff16146103e2576040517f08c379a000000000000000000000000000000000000000000000000000000000815260040180806020018281038252601b8152602001807f43616c6c6572206973206e6f74206c6564676572206f776e65722e000000000081525060200191505060405180910390fd5b60006002820290508273ffffffffffffffffffffffffffffffffffffffff16427f07a47485689b24e69555b6775f8e91c4a2b7cf49b522e641473aa4a45dcd1d198484604051808381526020018281526020019250505060405180910390a3505050565b60008054906101000a900473ffffffffffffffffffffffffffffffffffffffff1673ffffffffffffffffffffffffffffffffffffffff163373ffffffffffffffffffffffffffffffffffffffff1614610507576040517f08c379a000000000000000000000000000000000000000000000000000000000815260040180806020018281038252601b8152602001807f43616c6c6572206973206e6f74206c6564676572206f776e65722e000000000081525060200191505060405180910390fd5b806040518082805190602001908083835b6020831061053b5780518252602082019150602081019050602083039250610518565b6001836020036101000a03801982511681845116808217855250505050505090500191505060405180910390208273ffffffffffffffffffffffffffffffffffffffff16427f432c47ad3a952268887224bad42b1840e84fe8ac00fc4ed7e992321daf089b0460405160405180910390a45050565b60008054906101000a900473ffffffffffffffffffffffffffffffffffffffff1673ffffffffffffffffffffffffffffffffffffffff163373ffffffffffffffffffffffffffffffffffffffff1614610671576040517f08c379a000000000000000000000000000000000000000000000000000000000815260040180806020018281038252601b8152602001807f43616c6c6572206973206e6f74206c6564676572206f776e65722e000000000081525060200191505060405180910390fd5b60008054906101000a900473ffffffffffffffffffffffffffffffffffffffff1673ffffffffffffffffffffffffffffffffffffffff16ff5b60008054906101000a900473ffffffffffffffffffffffffffffffffffffffff1681565b60008054906101000a900473ffffffffffffffffffffffffffffffffffffffff1673ffffffffffffffffffffffffffffffffffffffff163373ffffffffffffffffffffffffffffffffffffffff161461078f576040517f08c379a000000000000000000000000000000000000000000000000000000000815260040180806020018281038252601b8152602001807f43616c6c6572206973206e6f74206c6564676572206f776e65722e000000000081525060200191505060405180910390fd5b8273ffffffffffffffffffffffffffffffffffffffff16427f8ff626bdb5287a5bff5d5d317436780079575038beccbcb11487c61b4348c1108484604051808381526020018281526020019250505060405180910390a3505050565b60008054906101000a900473ffffffffffffffffffffffffffffffffffffffff1673ffffffffffffffffffffffffffffffffffffffff163373ffffffffffffffffffffffffffffffffffffffff16146108ac576040517f08c379a000000000000000000000000000000000000000000000000000000000815260040180806020018281038252601b8152602001807f43616c6c6572206973206e6f74206c6564676572206f776e65722e000000000081525060200191505060405180910390fd5b806040518082805190602001908083835b602083106108e057805182526020820191506020810190506020830392506108bd565b6001836020036101000a03801982511681845116808217855250505050505090500191505060405180910390208373ffffffffffffffffffffffffffffffffffffffff16427f889f615754b58affdf6bd7345e3dbc55fd1dac800aa32a3d6e974c1a1ff2053285604051808273ffffffffffffffffffffffffffffffffffffffff16815260200191505060405180910390a450505056fea264697066735822122045fefbb57830155d1c7cb7f3400f0fae1f51b85f80b248fdae521a9e114deb0a64736f6c63430007040033",
  "immutableReferences": {},
  "source": "//SPDX-License-Identifier: UNLICENSED\r\n\r\npragma solidity >=0.7.0 <0.8.0;\r\n\r\ncontract Base{\r\n    address payable public owner;\r\n\r\n    // Constructor\r\n    constructor() {\r\n        owner = msg.sender;\r\n    }\r\n    \r\n    // Modifier \r\n    modifier isOwner() {\r\n        require(msg.sender == owner, \"Caller is not ledger owner.\");\r\n        _;\r\n    }    \r\n    \r\n    // Destructor\r\n    function destroy() virtual public isOwner {\r\n        selfdestruct(owner);\r\n    }\r\n}\r\n\r\n\r\n// Stores asset information (ownership, interest rate, original value, debt value)\r\ncontract Ledger is Base {\r\n    // Events\r\n    event EntryCreate(\r\n        uint indexed date,\r\n        address indexed from,\r\n        uint loan_amount,\r\n        uint loan_cap\r\n        );\r\n        \r\n    event EntryCreateCollateral(\r\n        uint indexed date,\r\n        address indexed from,\r\n        string indexed collateralID\r\n        );\r\n        \r\n    event EntryTransfer(\r\n        uint indexed date,\r\n        address indexed from,\r\n        address to,\r\n        string indexed collateralID\r\n        );\r\n        \r\n    event LogPayment(\r\n        uint indexed date,\r\n        address indexed from,\r\n        uint paying,\r\n        uint remaining\r\n        );\r\n\r\n    // Functions\r\n    // Appends new entry to ledger\r\n    function addBorrower(address from, uint loan_amount) public isOwner {\r\n        uint loan_cap = loan_amount * 2;\r\n        emit EntryCreate(block.timestamp, from, loan_amount, loan_cap);\r\n    }\r\n    \r\n    //Append new collateral entry to ledger\r\n    function addCollateral(address from, string memory collateralID) public isOwner {\r\n        emit EntryCreateCollateral(block.timestamp, from, collateralID);\r\n    }\r\n    \r\n    // Log debt payment\r\n    function recordPayment(address from, uint amount, uint remaining) public isOwner{\r\n        emit LogPayment(block.timestamp, from, amount, remaining);\r\n    }\r\n    \r\n    // Log asset transfer\r\n    function transferItem(address from, address to, string memory collateralID) public isOwner{\r\n        emit EntryTransfer(block.timestamp, from, to, collateralID);\r\n    }\r\n}",
  "sourcePath": "C:\\Users\\Zombie\\Documents\\School\\2020\\493-BlockChain\\Assignment04\\pawn_contract\\contracts\\LedgerContract.sol",
  "compiler": {
    "name": "solc",
    "version": "0.7.4+commit.3f05b770.Emscripten.clang"
  },
  "schemaVersion": "3.3.2",
  "updatedAt": "2020-12-09T03:28:30.806Z",
  "devdoc": {
    "kind": "dev",
    "methods": {},
    "version": 1
  },
  "userdoc": {
    "kind": "user",
    "methods": {},
    "version": 1
  }
}