{
  "contractName": "Pawn",
  "abi": [
    {
      "inputs": [],
      "stateMutability": "nonpayable",
      "type": "constructor"
    },
    {
      "anonymous": false,
      "inputs": [
        {
          "indexed": false,
          "internalType": "uint256",
          "name": "interestRatePerSecond",
          "type": "uint256"
        }
      ],
      "name": "Value",
      "type": "event"
    },
    {
      "inputs": [],
      "name": "idCount",
      "outputs": [
        {
          "internalType": "uint8",
          "name": "",
          "type": "uint8"
        }
      ],
      "stateMutability": "view",
      "type": "function"
    },
    {
      "inputs": [],
      "name": "interestRate",
      "outputs": [
        {
          "internalType": "uint8",
          "name": "",
          "type": "uint8"
        }
      ],
      "stateMutability": "view",
      "type": "function"
    },
    {
      "inputs": [],
      "name": "interestRatePerSecond",
      "outputs": [
        {
          "internalType": "uint256",
          "name": "",
          "type": "uint256"
        }
      ],
      "stateMutability": "view",
      "type": "function"
    },
    {
      "inputs": [],
      "name": "owner",
      "outputs": [
        {
          "internalType": "address payable",
          "name": "",
          "type": "address"
        }
      ],
      "stateMutability": "view",
      "type": "function"
    },
    {
      "stateMutability": "payable",
      "type": "receive"
    },
    {
      "inputs": [
        {
          "internalType": "string",
          "name": "ticketCode",
          "type": "string"
        }
      ],
      "name": "collateralApplication",
      "outputs": [],
      "stateMutability": "nonpayable",
      "type": "function"
    },
    {
      "inputs": [
        {
          "internalType": "string",
          "name": "ticketCode",
          "type": "string"
        }
      ],
      "name": "evaluateCollateral",
      "outputs": [],
      "stateMutability": "payable",
      "type": "function"
    },
    {
      "inputs": [
        {
          "internalType": "address payable",
          "name": "borrowerAddress",
          "type": "address"
        }
      ],
      "name": "updateDebtBorrower",
      "outputs": [
        {
          "internalType": "uint256",
          "name": "",
          "type": "uint256"
        }
      ],
      "stateMutability": "nonpayable",
      "type": "function"
    },
    {
      "inputs": [],
      "name": "payOffDebt",
      "outputs": [
        {
          "internalType": "uint256",
          "name": "",
          "type": "uint256"
        }
      ],
      "stateMutability": "payable",
      "type": "function"
    },
    {
      "inputs": [],
      "name": "destroy",
      "outputs": [],
      "stateMutability": "nonpayable",
      "type": "function"
    },
    {
      "inputs": [],
      "name": "getOwner",
      "outputs": [
        {
          "internalType": "address",
          "name": "",
          "type": "address"
        }
      ],
      "stateMutability": "view",
      "type": "function"
    },
    {
      "inputs": [],
      "name": "getInterestRatePerSecond",
      "outputs": [
        {
          "internalType": "uint256",
          "name": "",
          "type": "uint256"
        }
      ],
      "stateMutability": "view",
      "type": "function"
    },
    {
      "inputs": [],
      "name": "getFloatFluff",
      "outputs": [
        {
          "internalType": "uint256",
          "name": "",
          "type": "uint256"
        }
      ],
      "stateMutability": "view",
      "type": "function"
    },
    {
      "inputs": [
        {
          "internalType": "string",
          "name": "ticketCode",
          "type": "string"
        }
      ],
      "name": "getTicketAddress",
      "outputs": [
        {
          "internalType": "address",
          "name": "",
          "type": "address"
        }
      ],
      "stateMutability": "view",
      "type": "function"
    },
    {
      "inputs": [
        {
          "internalType": "address",
          "name": "borrowerAddress",
          "type": "address"
        }
      ],
      "name": "getRunningDebt",
      "outputs": [
        {
          "internalType": "uint256",
          "name": "",
          "type": "uint256"
        }
      ],
      "stateMutability": "view",
      "type": "function"
    },
    {
      "inputs": [
        {
          "internalType": "address",
          "name": "borrowerAddress",
          "type": "address"
        }
      ],
      "name": "getRunningMax",
      "outputs": [
        {
          "internalType": "uint256",
          "name": "",
          "type": "uint256"
        }
      ],
      "stateMutability": "view",
      "type": "function"
    },
    {
      "inputs": [
        {
          "internalType": "address payable",
          "name": "borrower",
          "type": "address"
        },
        {
          "internalType": "uint256",
          "name": "timePassed",
          "type": "uint256"
        }
      ],
      "name": "updateDebtWithTime",
      "outputs": [
        {
          "internalType": "uint256",
          "name": "",
          "type": "uint256"
        }
      ],
      "stateMutability": "nonpayable",
      "type": "function"
    }
  ],
  "bytecode": "0x60806040523480156200001157600080fd5b50336000806101000a81548173ffffffffffffffffffffffffffffffffffffffff021916908373ffffffffffffffffffffffffffffffffffffffff160217905550336000806101000a81548173ffffffffffffffffffffffffffffffffffffffff021916908373ffffffffffffffffffffffffffffffffffffffff1602179055506001600060146101000a81548160ff021916908360ff1602179055506014600060156101000a81548160ff021916908360ff16021790555066038d7ea4c6800060028190555062278d006064600254600060159054906101000a900460ff1660ff160281620000fd57fe5b04816200010657fe5b046001819055506040516200011b906200017f565b604051809103906000f08015801562000138573d6000803e3d6000fd5b50600360006101000a81548173ffffffffffffffffffffffffffffffffffffffff021916908373ffffffffffffffffffffffffffffffffffffffff1602179055506200018d565b610a0d806200283383390190565b612696806200019d6000396000f3fe6080604052600436106100f75760003560e01c80638da5cb5b1161008a578063c169693e11610059578063c169693e14610503578063e6e46238146105f5578063f4a4882714610623578063f82e30ad1461064e57610107565b80638da5cb5b146103775780639cc820da146103b8578063aafdced2146103e3578063ab7cec411461044857610107565b80637f93c56a116100c65780637f93c56a1461024b5780638132af2d146102b057806383197ef01461031f578063893d20e81461033657610107565b8063445a5df61461010c57806355504cb7146101d457806369276c08146101f25780637c3a00fd1461021d57610107565b36610107576101046106b3565b50005b600080fd5b34801561011857600080fd5b506101d26004803603602081101561012f57600080fd5b810190808035906020019064010000000081111561014c57600080fd5b82018360208201111561015e57600080fd5b8035906020019184600183028401116401000000008311171561018057600080fd5b91908080601f016020809104026020016040519081016040528093929190818152602001838380828437600081840152601f19601f820116905080830192505050505050509192919290505050610895565b005b6101dc6106b3565b6040518082815260200191505060405180910390f35b3480156101fe57600080fd5b50610207610940565b6040518082815260200191505060405180910390f35b34801561022957600080fd5b5061023261094a565b604051808260ff16815260200191505060405180910390f35b34801561025757600080fd5b5061029a6004803603602081101561026e57600080fd5b81019080803573ffffffffffffffffffffffffffffffffffffffff16906020019092919050505061095d565b6040518082815260200191505060405180910390f35b3480156102bc57600080fd5b50610309600480360360408110156102d357600080fd5b81019080803573ffffffffffffffffffffffffffffffffffffffff16906020019092919080359060200190929190505050610a76565b6040518082815260200191505060405180910390f35b34801561032b57600080fd5b50610334610d3c565b005b34801561034257600080fd5b5061034b610eb8565b604051808273ffffffffffffffffffffffffffffffffffffffff16815260200191505060405180910390f35b34801561038357600080fd5b5061038c610ee1565b604051808273ffffffffffffffffffffffffffffffffffffffff16815260200191505060405180910390f35b3480156103c457600080fd5b506103cd610f05565b6040518082815260200191505060405180910390f35b3480156103ef57600080fd5b506104326004803603602081101561040657600080fd5b81019080803573ffffffffffffffffffffffffffffffffffffffff169060200190929190505050610f0b565b6040518082815260200191505060405180910390f35b6105016004803603602081101561045e57600080fd5b810190808035906020019064010000000081111561047b57600080fd5b82018360208201111561048d57600080fd5b803590602001918460018302840111640100000000831117156104af57600080fd5b91908080601f016020809104026020016040519081016040528093929190818152602001838380828437600081840152601f19601f820116905080830192505050505050509192919290505050610f57565b005b34801561050f57600080fd5b506105c96004803603602081101561052657600080fd5b810190808035906020019064010000000081111561054357600080fd5b82018360208201111561055557600080fd5b8035906020019184600183028401116401000000008311171561057757600080fd5b91908080601f016020809104026020016040519081016040528093929190818152602001838380828437600081840152601f19601f820116905080830192505050505050509192919290505050611a03565b604051808273ffffffffffffffffffffffffffffffffffffffff16815260200191505060405180910390f35b34801561060157600080fd5b5061060a611a96565b604051808260ff16815260200191505060405180910390f35b34801561062f57600080fd5b50610638611aa9565b6040518082815260200191505060405180910390f35b34801561065a57600080fd5b5061069d6004803603602081101561067157600080fd5b81019080803573ffffffffffffffffffffffffffffffffffffffff169060200190929190505050611ab3565b6040518082815260200191505060405180910390f35b60008060006106c133611aff565b809250819350505080156106d9576106d833611e1d565b5b8134111561078457600091506106ee33612136565b600560003373ffffffffffffffffffffffffffffffffffffffff1673ffffffffffffffffffffffffffffffffffffffff168152602001908152602001600020600080820160006101000a81549073ffffffffffffffffffffffffffffffffffffffff0219169055600182016000610765919061244f565b60028201600090556003820160009055600482016000905550506107da565b34600560003373ffffffffffffffffffffffffffffffffffffffff1673ffffffffffffffffffffffffffffffffffffffff1681526020019081526020016000206002016000828254039250508190555034820391505b600360009054906101000a900473ffffffffffffffffffffffffffffffffffffffff1673ffffffffffffffffffffffffffffffffffffffff1663cc9d6dff3334856040518463ffffffff1660e01b8152600401808473ffffffffffffffffffffffffffffffffffffffff1681526020018381526020018281526020019350505050600060405180830381600087803b15801561087557600080fd5b505af1158015610889573d6000803e3d6000fd5b50505050819250505090565b336004826040518082805190602001908083835b602083106108cc57805182526020820191506020810190506020830392506108a9565b6001836020036101000a038019825116818451168082178552505050505050905001915050908152602001604051809103902060006101000a81548173ffffffffffffffffffffffffffffffffffffffff021916908373ffffffffffffffffffffffffffffffffffffffff16021790555050565b6000600254905090565b600060159054906101000a900460ff1681565b60008060009054906101000a900473ffffffffffffffffffffffffffffffffffffffff1673ffffffffffffffffffffffffffffffffffffffff163373ffffffffffffffffffffffffffffffffffffffff1614610a21576040517f08c379a000000000000000000000000000000000000000000000000000000000815260040180806020018281038252601b8152602001807f43616c6c6572206973206e6f74206c6564676572206f776e65722e000000000081525060200191505060405180910390fd5b610a2a82611aff565b5050600560008373ffffffffffffffffffffffffffffffffffffffff1673ffffffffffffffffffffffffffffffffffffffff168152602001908152602001600020600201549050919050565b600080600560008573ffffffffffffffffffffffffffffffffffffffff1673ffffffffffffffffffffffffffffffffffffffff1681526020019081526020016000206002015411610b2f576040517f08c379a00000000000000000000000000000000000000000000000000000000081526004018080602001828103825260198152602001807f54686973206164647265737320686173206e6f20646562742e0000000000000081525060200191505060405180910390fd5b6000600560008573ffffffffffffffffffffffffffffffffffffffff1673ffffffffffffffffffffffffffffffffffffffff16815260200190815260200160002060020154905060011515600560008673ffffffffffffffffffffffffffffffffffffffff1673ffffffffffffffffffffffffffffffffffffffff168152602001908152602001600020600101600081548110610bc857fe5b906000526020600020906004020160030160009054906101000a900460ff1615151415610bf85780915050610d36565b6002548160015485020281610c0957fe5b048101905080600560008673ffffffffffffffffffffffffffffffffffffffff1673ffffffffffffffffffffffffffffffffffffffff1681526020019081526020016000206002018190555042600560008673ffffffffffffffffffffffffffffffffffffffff1673ffffffffffffffffffffffffffffffffffffffff16815260200190815260200160002060040181905550600560008573ffffffffffffffffffffffffffffffffffffffff1673ffffffffffffffffffffffffffffffffffffffff16815260200190815260200160002060030154600560008673ffffffffffffffffffffffffffffffffffffffff1673ffffffffffffffffffffffffffffffffffffffff168152602001908152602001600020600201541115610d315780915050610d36565b809150505b92915050565b60008054906101000a900473ffffffffffffffffffffffffffffffffffffffff1673ffffffffffffffffffffffffffffffffffffffff163373ffffffffffffffffffffffffffffffffffffffff1614610dfd576040517f08c379a000000000000000000000000000000000000000000000000000000000815260040180806020018281038252601b8152602001807f43616c6c6572206973206e6f74206c6564676572206f776e65722e000000000081525060200191505060405180910390fd5b600360009054906101000a900473ffffffffffffffffffffffffffffffffffffffff1673ffffffffffffffffffffffffffffffffffffffff166383197ef06040518163ffffffff1660e01b8152600401600060405180830381600087803b158015610e6757600080fd5b505af1158015610e7b573d6000803e3d6000fd5b5050505060008054906101000a900473ffffffffffffffffffffffffffffffffffffffff1673ffffffffffffffffffffffffffffffffffffffff16ff5b60008060009054906101000a900473ffffffffffffffffffffffffffffffffffffffff16905090565b60008054906101000a900473ffffffffffffffffffffffffffffffffffffffff1681565b60015481565b6000600560008373ffffffffffffffffffffffffffffffffffffffff1673ffffffffffffffffffffffffffffffffffffffff168152602001908152602001600020600301549050919050565b60008054906101000a900473ffffffffffffffffffffffffffffffffffffffff1673ffffffffffffffffffffffffffffffffffffffff163373ffffffffffffffffffffffffffffffffffffffff1614611018576040517f08c379a000000000000000000000000000000000000000000000000000000000815260040180806020018281038252601b8152602001807f43616c6c6572206973206e6f74206c6564676572206f776e65722e000000000081525060200191505060405180910390fd5b6000341161102557600080fd5b343373ffffffffffffffffffffffffffffffffffffffff16311015611095576040517f08c379a00000000000000000000000000000000000000000000000000000000081526004018080602001828103825260218152602001806126406021913960400191505060405180910390fd5b60006004826040518082805190602001908083835b602083106110cd57805182526020820191506020810190506020830392506110aa565b6001836020036101000a038019825116818451168082178552505050505050905001915050908152602001604051809103902060009054906101000a900473ffffffffffffffffffffffffffffffffffffffff169050600073ffffffffffffffffffffffffffffffffffffffff168173ffffffffffffffffffffffffffffffffffffffff1614156111a9576040517f08c379a00000000000000000000000000000000000000000000000000000000081526004018080602001828103825260288152602001806126186028913960400191505060405180910390fd5b6000600560008373ffffffffffffffffffffffffffffffffffffffff1673ffffffffffffffffffffffffffffffffffffffff16815260200190815260200160002060020154148061128857506004600560008373ffffffffffffffffffffffffffffffffffffffff1673ffffffffffffffffffffffffffffffffffffffff168152602001908152602001600020600301548161124157fe5b04600560008373ffffffffffffffffffffffffffffffffffffffff1673ffffffffffffffffffffffffffffffffffffffff1681526020019081526020016000206002015411155b6112dd576040517f08c379a000000000000000000000000000000000000000000000000000000000815260040180806020018281038252602d8152602001806125eb602d913960400191505060405180910390fd5b60003490506112ea612473565b6040518060800160405280600060149054906101000a900460ff1660ff1681526020018581526020018381526020016000151581525090506000600560008573ffffffffffffffffffffffffffffffffffffffff1673ffffffffffffffffffffffffffffffffffffffff1681526020019081526020016000206002015414156115bb5782600560008573ffffffffffffffffffffffffffffffffffffffff1673ffffffffffffffffffffffffffffffffffffffff16815260200190815260200160002060000160006101000a81548173ffffffffffffffffffffffffffffffffffffffff021916908373ffffffffffffffffffffffffffffffffffffffff160217905550600560008473ffffffffffffffffffffffffffffffffffffffff1673ffffffffffffffffffffffffffffffffffffffff16815260200190815260200160002060010181908060018154018082558091505060019003906000526020600020906004020160009091909190915060008201518160000160006101000a81548160ff021916908360ff16021790555060208201518160010190805190602001906114979291906124a0565b506040820151816002015560608201518160030160006101000a81548160ff02191690831515021790555050508060400151600560008573ffffffffffffffffffffffffffffffffffffffff1673ffffffffffffffffffffffffffffffffffffffff168152602001908152602001600020600201600082825401925050819055506002816040015102600560008573ffffffffffffffffffffffffffffffffffffffff1673ffffffffffffffffffffffffffffffffffffffff1681526020019081526020016000206003016000828254019250508190555042600560008573ffffffffffffffffffffffffffffffffffffffff1673ffffffffffffffffffffffffffffffffffffffff1681526020019081526020016000206004018190555061173d565b600560008473ffffffffffffffffffffffffffffffffffffffff1673ffffffffffffffffffffffffffffffffffffffff16815260200190815260200160002060010181908060018154018082558091505060019003906000526020600020906004020160009091909190915060008201518160000160006101000a81548160ff021916908360ff16021790555060208201518160010190805190602001906116649291906124a0565b506040820151816002015560608201518160030160006101000a81548160ff02191690831515021790555050508060400151600560008573ffffffffffffffffffffffffffffffffffffffff1673ffffffffffffffffffffffffffffffffffffffff168152602001908152602001600020600201600082825401925050819055506002816040015102600560008573ffffffffffffffffffffffffffffffffffffffff1673ffffffffffffffffffffffffffffffffffffffff168152602001908152602001600020600301600082825401925050819055505b6004846040518082805190602001908083835b602083106117735780518252602082019150602081019050602083039250611750565b6001836020036101000a038019825116818451168082178552505050505050905001915050908152602001604051809103902060006101000a81549073ffffffffffffffffffffffffffffffffffffffff02191690558273ffffffffffffffffffffffffffffffffffffffff166108fc349081150290604051600060405180830381858888f1935050505015801561180f573d6000803e3d6000fd5b50600360009054906101000a900473ffffffffffffffffffffffffffffffffffffffff1673ffffffffffffffffffffffffffffffffffffffff166302422a2a84346040518363ffffffff1660e01b8152600401808373ffffffffffffffffffffffffffffffffffffffff16815260200182815260200192505050600060405180830381600087803b1580156118a357600080fd5b505af11580156118b7573d6000803e3d6000fd5b50505050600360009054906101000a900473ffffffffffffffffffffffffffffffffffffffff1673ffffffffffffffffffffffffffffffffffffffff16636abb999e84866040518363ffffffff1660e01b8152600401808373ffffffffffffffffffffffffffffffffffffffff16815260200180602001828103825283818151815260200191508051906020019080838360005b8381101561196657808201518184015260208101905061194b565b50505050905090810190601f1680156119935780820380516001836020036101000a031916815260200191505b509350505050600060405180830381600087803b1580156119b357600080fd5b505af11580156119c7573d6000803e3d6000fd5b505050506000601481819054906101000a900460ff168092919060010191906101000a81548160ff021916908360ff1602179055505050505050565b60006004826040518082805190602001908083835b60208310611a3b5780518252602082019150602081019050602083039250611a18565b6001836020036101000a038019825116818451168082178552505050505050905001915050908152602001604051809103902060009054906101000a900473ffffffffffffffffffffffffffffffffffffffff169050919050565b600060149054906101000a900460ff1681565b6000600154905090565b6000600560008373ffffffffffffffffffffffffffffffffffffffff1673ffffffffffffffffffffffffffffffffffffffff168152602001908152602001600020600201549050919050565b6000806000600560008573ffffffffffffffffffffffffffffffffffffffff1673ffffffffffffffffffffffffffffffffffffffff1681526020019081526020016000206002015411611bba576040517f08c379a00000000000000000000000000000000000000000000000000000000081526004018080602001828103825260198152602001807f54686973206164647265737320686173206e6f20646562742e0000000000000081525060200191505060405180910390fd5b6000600560008573ffffffffffffffffffffffffffffffffffffffff1673ffffffffffffffffffffffffffffffffffffffff16815260200190815260200160002060020154905060011515600560008673ffffffffffffffffffffffffffffffffffffffff1673ffffffffffffffffffffffffffffffffffffffff168152602001908152602001600020600101600081548110611c5357fe5b906000526020600020906004020160030160009054906101000a900460ff1615151415611c87578060009250925050611e18565b600042600560008773ffffffffffffffffffffffffffffffffffffffff1673ffffffffffffffffffffffffffffffffffffffff168152602001908152602001600020600401540390506002548260015483020281611ce157fe5b048201915081600560008773ffffffffffffffffffffffffffffffffffffffff1673ffffffffffffffffffffffffffffffffffffffff1681526020019081526020016000206002018190555042600560008773ffffffffffffffffffffffffffffffffffffffff1673ffffffffffffffffffffffffffffffffffffffff16815260200190815260200160002060040181905550600560008673ffffffffffffffffffffffffffffffffffffffff1673ffffffffffffffffffffffffffffffffffffffff16815260200190815260200160002060030154600560008773ffffffffffffffffffffffffffffffffffffffff1673ffffffffffffffffffffffffffffffffffffffff168152602001908152602001600020600201541115611e0e57816001935093505050611e18565b8160009350935050505b915091565b60005b600560008373ffffffffffffffffffffffffffffffffffffffff1673ffffffffffffffffffffffffffffffffffffffff168152602001908152602001600020600101805490508110156121325760001515600560008473ffffffffffffffffffffffffffffffffffffffff1673ffffffffffffffffffffffffffffffffffffffff1681526020019081526020016000206001018281548110611ebe57fe5b906000526020600020906004020160030160009054906101000a900460ff161515141561212557600360009054906101000a900473ffffffffffffffffffffffffffffffffffffffff1673ffffffffffffffffffffffffffffffffffffffff1663ceb955168360008054906101000a900473ffffffffffffffffffffffffffffffffffffffff16600560008773ffffffffffffffffffffffffffffffffffffffff1673ffffffffffffffffffffffffffffffffffffffff1681526020019081526020016000206001018581548110611f9257fe5b90600052602060002090600402016001016040518463ffffffff1660e01b8152600401808473ffffffffffffffffffffffffffffffffffffffff1681526020018373ffffffffffffffffffffffffffffffffffffffff168152602001806020018281038252838181546001816001161561010002031660029004815260200191508054600181600116156101000203166002900480156120735780601f1061204857610100808354040283529160200191612073565b820191906000526020600020905b81548152906001019060200180831161205657829003601f168201915b5050945050505050600060405180830381600087803b15801561209557600080fd5b505af11580156120a9573d6000803e3d6000fd5b505050506001600560008473ffffffffffffffffffffffffffffffffffffffff1673ffffffffffffffffffffffffffffffffffffffff16815260200190815260200160002060010182815481106120fc57fe5b906000526020600020906004020160030160006101000a81548160ff0219169083151502179055505b8080600101915050611e20565b5050565b60005b600560008373ffffffffffffffffffffffffffffffffffffffff1673ffffffffffffffffffffffffffffffffffffffff1681526020019081526020016000206001018054905081101561244b5760011515600560008473ffffffffffffffffffffffffffffffffffffffff1673ffffffffffffffffffffffffffffffffffffffff16815260200190815260200160002060010182815481106121d757fe5b906000526020600020906004020160030160009054906101000a900460ff161515141561243e57600360009054906101000a900473ffffffffffffffffffffffffffffffffffffffff1673ffffffffffffffffffffffffffffffffffffffff1663ceb9551660008054906101000a900473ffffffffffffffffffffffffffffffffffffffff1684600560008773ffffffffffffffffffffffffffffffffffffffff1673ffffffffffffffffffffffffffffffffffffffff16815260200190815260200160002060010185815481106122ab57fe5b90600052602060002090600402016001016040518463ffffffff1660e01b8152600401808473ffffffffffffffffffffffffffffffffffffffff1681526020018373ffffffffffffffffffffffffffffffffffffffff1681526020018060200182810382528381815460018160011615610100020316600290048152602001915080546001816001161561010002031660029004801561238c5780601f106123615761010080835404028352916020019161238c565b820191906000526020600020905b81548152906001019060200180831161236f57829003601f168201915b5050945050505050600060405180830381600087803b1580156123ae57600080fd5b505af11580156123c2573d6000803e3d6000fd5b505050506000600560008473ffffffffffffffffffffffffffffffffffffffff1673ffffffffffffffffffffffffffffffffffffffff168152602001908152602001600020600101828154811061241557fe5b906000526020600020906004020160030160006101000a81548160ff0219169083151502179055505b8080600101915050612139565b5050565b5080546000825560040290600052602060002090810190612470919061252e565b50565b6040518060800160405280600060ff16815260200160608152602001600081526020016000151581525090565b828054600181600116156101000203166002900490600052602060002090601f0160209004810192826124d6576000855561251d565b82601f106124ef57805160ff191683800117855561251d565b8280016001018555821561251d579182015b8281111561251c578251825591602001919060010190612501565b5b50905061252a9190612585565b5090565b5b8082111561258157600080820160006101000a81549060ff021916905560018201600061255c91906125a2565b60028201600090556003820160006101000a81549060ff02191690555060040161252f565b5090565b5b8082111561259e576000816000905550600101612586565b5090565b50805460018160011615610100020316600290046000825580601f106125c857506125e7565b601f0160209004906000526020600020908101906125e69190612585565b5b5056fe54686520626f72726f776572206f77657320746f6f206d75636820746f20676574206d6f7265206c6f616e732e5469636b657420636f646520646f6573206e6f7420657869737420696e207175657565207965742e4e6f7420656e6f7567682063757272656e637920666f7220746865206c6f616e2ea2646970667358221220be625f0e0d8156f1b9de24100d0c8577e8061471c8fb4ea80fb48d59d6305e2764736f6c63430007040033608060405234801561001057600080fd5b50336000806101000a81548173ffffffffffffffffffffffffffffffffffffffff021916908373ffffffffffffffffffffffffffffffffffffffff1602179055506109ad806100606000396000f3fe608060405234801561001057600080fd5b50600436106100625760003560e01c806302422a2a146100675780636abb999e146100b557806383197ef0146101905780638da5cb5b1461019a578063cc9d6dff146101ce578063ceb9551614610226575b600080fd5b6100b36004803603604081101561007d57600080fd5b81019080803573ffffffffffffffffffffffffffffffffffffffff16906020019092919080359060200190929190505050610321565b005b61018e600480360360408110156100cb57600080fd5b81019080803573ffffffffffffffffffffffffffffffffffffffff1690602001909291908035906020019064010000000081111561010857600080fd5b82018360208201111561011a57600080fd5b8035906020019184600183028401116401000000008311171561013c57600080fd5b91908080601f016020809104026020016040519081016040528093929190818152602001838380828437600081840152601f19601f820116905080830192505050505050509192919290505050610446565b005b6101986105b0565b005b6101a26106aa565b604051808273ffffffffffffffffffffffffffffffffffffffff16815260200191505060405180910390f35b610224600480360360608110156101e457600080fd5b81019080803573ffffffffffffffffffffffffffffffffffffffff16906020019092919080359060200190929190803590602001909291905050506106ce565b005b61031f6004803603606081101561023c57600080fd5b81019080803573ffffffffffffffffffffffffffffffffffffffff169060200190929190803573ffffffffffffffffffffffffffffffffffffffff1690602001909291908035906020019064010000000081111561029957600080fd5b8201836020820111156102ab57600080fd5b803590602001918460018302840111640100000000831117156102cd57600080fd5b91908080601f016020809104026020016040519081016040528093929190818152602001838380828437600081840152601f19601f8201169050808301925050505050505091929192905050506107eb565b005b60008054906101000a900473ffffffffffffffffffffffffffffffffffffffff1673ffffffffffffffffffffffffffffffffffffffff163373ffffffffffffffffffffffffffffffffffffffff16146103e2576040517f08c379a000000000000000000000000000000000000000000000000000000000815260040180806020018281038252601b8152602001807f43616c6c6572206973206e6f74206c6564676572206f776e65722e000000000081525060200191505060405180910390fd5b60006002820290508273ffffffffffffffffffffffffffffffffffffffff16427f07a47485689b24e69555b6775f8e91c4a2b7cf49b522e641473aa4a45dcd1d198484604051808381526020018281526020019250505060405180910390a3505050565b60008054906101000a900473ffffffffffffffffffffffffffffffffffffffff1673ffffffffffffffffffffffffffffffffffffffff163373ffffffffffffffffffffffffffffffffffffffff1614610507576040517f08c379a000000000000000000000000000000000000000000000000000000000815260040180806020018281038252601b8152602001807f43616c6c6572206973206e6f74206c6564676572206f776e65722e000000000081525060200191505060405180910390fd5b806040518082805190602001908083835b6020831061053b5780518252602082019150602081019050602083039250610518565b6001836020036101000a03801982511681845116808217855250505050505090500191505060405180910390208273ffffffffffffffffffffffffffffffffffffffff16427f432c47ad3a952268887224bad42b1840e84fe8ac00fc4ed7e992321daf089b0460405160405180910390a45050565b60008054906101000a900473ffffffffffffffffffffffffffffffffffffffff1673ffffffffffffffffffffffffffffffffffffffff163373ffffffffffffffffffffffffffffffffffffffff1614610671576040517f08c379a000000000000000000000000000000000000000000000000000000000815260040180806020018281038252601b8152602001807f43616c6c6572206973206e6f74206c6564676572206f776e65722e000000000081525060200191505060405180910390fd5b60008054906101000a900473ffffffffffffffffffffffffffffffffffffffff1673ffffffffffffffffffffffffffffffffffffffff16ff5b60008054906101000a900473ffffffffffffffffffffffffffffffffffffffff1681565b60008054906101000a900473ffffffffffffffffffffffffffffffffffffffff1673ffffffffffffffffffffffffffffffffffffffff163373ffffffffffffffffffffffffffffffffffffffff161461078f576040517f08c379a000000000000000000000000000000000000000000000000000000000815260040180806020018281038252601b8152602001807f43616c6c6572206973206e6f74206c6564676572206f776e65722e000000000081525060200191505060405180910390fd5b8273ffffffffffffffffffffffffffffffffffffffff16427f8ff626bdb5287a5bff5d5d317436780079575038beccbcb11487c61b4348c1108484604051808381526020018281526020019250505060405180910390a3505050565b60008054906101000a900473ffffffffffffffffffffffffffffffffffffffff1673ffffffffffffffffffffffffffffffffffffffff163373ffffffffffffffffffffffffffffffffffffffff16146108ac576040517f08c379a000000000000000000000000000000000000000000000000000000000815260040180806020018281038252601b8152602001807f43616c6c6572206973206e6f74206c6564676572206f776e65722e000000000081525060200191505060405180910390fd5b806040518082805190602001908083835b602083106108e057805182526020820191506020810190506020830392506108bd565b6001836020036101000a03801982511681845116808217855250505050505090500191505060405180910390208373ffffffffffffffffffffffffffffffffffffffff16427f889f615754b58affdf6bd7345e3dbc55fd1dac800aa32a3d6e974c1a1ff2053285604051808273ffffffffffffffffffffffffffffffffffffffff16815260200191505060405180910390a450505056fea264697066735822122045fefbb57830155d1c7cb7f3400f0fae1f51b85f80b248fdae521a9e114deb0a64736f6c63430007040033",
  "immutableReferences": {},
  "source": "//SPDX-License-Identifier: UNLICENSED\r\n/*\r\nAuthor: Won Seok Yang\r\n\r\nA smart contract for a loan system that holds assets as collateral like banks/pawn shops.\r\n\r\nTwo separate contracts:\r\nContract 1: ledger.sol\r\n- A ledger that logs and stores asset ownership and payments made\r\nContract 2: pawnContract.sol \r\n- A functional contract that takes care of calculating/processing loan payment, \r\ninterest calculation, collateral transfer, collateral evaluation. \r\n\r\nGeneral flow:\r\n- Loanee offers/transfers collateral (proof of ownership) to the functional contract and \r\nwill get the evaluated sum of the loan in return\r\n- If the loanee doesn't like the terms, they can return the complete loan sum back \r\nto the functional contract. All incurred fees are paid by the loanee.\r\nAlong with the proof of ownership, the details of the loan such as loan amount and \r\ndate are kept in the ledger.\r\n- The loanee can pay back any amount of the loan at any time but the loan will \r\nbecome subject to interest rates defined during pawnContract deployment.\r\n- Upon paying off the loan, the functional contract will 'release' the initial \r\noffered collateral(s) by logging it in the ledger.\r\n- If the value of the debt accrues to greater than the value of the \r\ncollateral x 2 and no payments are made, ownership of the collateral is \r\nreleased to the loaner and recorded on the ledger\r\n*/\r\n\r\npragma solidity >=0.7.0 <0.8.0;\r\n\r\nimport \"./LedgerContract.sol\";\r\n\r\ncontract Pawn is Base {\r\n    uint8 public idCount; //independent collateral ID's \r\n    uint8 public interestRate;\r\n    uint public interestRatePerSecond;\r\n    uint floatFluff;\r\n    Ledger _ledger; //ledger contract is 'owned' by Pawn contarct\r\n    mapping(string => address payable) applicationQueue; //list of collateral to be approved\r\n    mapping(address => Debt) internal borrowers; \r\n    \r\n    struct Debt {\r\n        address debtor;\r\n        Collateral[] items; //pawned collateral\r\n        uint runningDebt;\r\n        uint runningMax; //max debt before requisition\r\n        uint time;\r\n    }\r\n    struct Collateral {\r\n        uint8 id;\r\n        string ticketCode;\r\n        uint256 value; //appraised value of collateral\r\n        bool siezed;\r\n    }\r\n    \r\n    event Value(uint interestRatePerSecond);\r\n    \r\n    constructor() {\r\n        owner = msg.sender;\r\n        idCount = 1;\r\n        interestRate = 20;  //percent\r\n        floatFluff = 1000000000000000;\r\n        //2592000 = number of seconds in 30 days\r\n        interestRatePerSecond = (((interestRate*floatFluff)/100)/2592000); \r\n        _ledger = new Ledger();\r\n    }\r\n    \r\n    // External functions\r\n    // fallback function automatically repays debt\r\n    receive() external payable {\r\n        payOffDebt();\r\n    }\r\n    \r\n    // The idea, the pawnee goes into the store to get an item evaluated and receives\r\n    // a ticket with a code they can use to find the value of the item they offered\r\n    // as collateral and receive the ether loan to their address.\r\n    function collateralApplication(string memory ticketCode) external {\r\n        applicationQueue[ticketCode] = msg.sender;\r\n    }\r\n    \r\n    // Loaner appraises value and adds ticketCode to the list of collateral\r\n    // Only give out loans if the borrower's running debt is < 1/4 their maxDebt\r\n    function evaluateCollateral(string memory ticketCode) external payable isOwner {\r\n        require(msg.value > 0);\r\n        require(msg.sender.balance >= msg.value, \r\n            \"Not enough currency for the loan.\"\r\n        );\r\n        //Checks to make sure borrower has submitted their address for payment\r\n        address payable borrower = applicationQueue[ticketCode];\r\n        require(borrower != address(0), \r\n            \"Ticket code does not exist in queue yet.\"\r\n        );\r\n        require(\r\n            (borrowers[borrower].runningDebt == 0) || \r\n            (borrowers[borrower].runningDebt <= borrowers[borrower].runningMax/4),\r\n            \"The borrower owes too much to get more loans.\"\r\n        );\r\n        \r\n        uint appraisedValue = msg.value;\r\n        \r\n        // Define new collateral item\r\n        Collateral memory newCollateral = Collateral(\r\n            idCount,\r\n            ticketCode,\r\n            appraisedValue,\r\n            false\r\n        );\r\n        \r\n        // Add new collateral item to borrower's list of collaterals and update debt info\r\n        if (borrowers[borrower].runningDebt == 0) { //this is first collateral for borrower\r\n            borrowers[borrower].debtor = borrower;\r\n            borrowers[borrower].items.push(newCollateral);\r\n            borrowers[borrower].runningDebt += newCollateral.value;\r\n            borrowers[borrower].runningMax += newCollateral.value * 2;\r\n            borrowers[borrower].time = block.timestamp;\r\n        } else { //borrower already has some collateral\r\n            borrowers[borrower].items.push(newCollateral);\r\n            borrowers[borrower].runningDebt += newCollateral.value;\r\n            borrowers[borrower].runningMax += newCollateral.value * 2;\r\n        }\r\n\r\n        // Remove ticket from queue\r\n        delete applicationQueue[ticketCode];\r\n        \r\n        // Send the loan to address on file\r\n        borrower.transfer(msg.value);\r\n        \r\n        // Add to ledger for bookkeeping\r\n        _ledger.addBorrower(borrower, msg.value);\r\n        _ledger.addCollateral(borrower, ticketCode);\r\n        idCount++;\r\n    }\r\n    \r\n    // Public functions\r\n    function updateDebtBorrower(address payable borrowerAddress) public isOwner returns(uint) {\r\n        updateDebt(borrowerAddress);\r\n        return(borrowers[borrowerAddress].runningDebt);\r\n    }\r\n\r\n    // Pays off debt amount according to sender's address.\r\n    // Collateral(s) only get released when ALL the debt is paid off.\r\n    // Return: remaining debt amount\r\n    function payOffDebt() public payable returns(uint) {\r\n        // Update debt value before paying\r\n        uint remainingDebt;\r\n        bool seize;\r\n        (remainingDebt, seize) = updateDebt(msg.sender);\r\n        \r\n        // The runnign debt has gone over 2x intital loan value\r\n        if (seize)\r\n            seizeCollateral(msg.sender);\r\n\r\n        if (msg.value > remainingDebt) { // Debt paid off in full\r\n            remainingDebt = 0;\r\n            //function to release all collateral on list and ledger\r\n            releaseCollateral(msg.sender);\r\n            \r\n            // release borrower from list\r\n            delete borrowers[msg.sender];\r\n            //function to write down collateral release\r\n            // // // // //\r\n            // Change is kept by pawnshop owner\r\n        } else { // Some debt still remaining\r\n            borrowers[msg.sender].runningDebt -= msg.value;\r\n            remainingDebt -= msg.value;\r\n        }\r\n        //function to log debt payment\r\n        _ledger.recordPayment(msg.sender, msg.value, remainingDebt);\r\n        \r\n        return (remainingDebt);\r\n    }\r\n    \r\n    // Given an address, update/calculate running debt with current time\r\n    // Return: Updated running debt after interest calculation and\r\n    //  true if debt has gone over limit || false otherwise\r\n    function updateDebt(address payable borrower) internal returns (uint, bool) {\r\n        // Check for debt existance\r\n        require(borrowers[borrower].runningDebt > 0, \"This address has no debt.\");\r\n\r\n        // Calculate current running debt at time of payment\r\n        uint updatedDebt = borrowers[borrower].runningDebt;\r\n        \r\n        //if borrower's assets are already requisitioned, stop calculating interest\r\n        if (borrowers[borrower].items[0].siezed == true){\r\n            return(updatedDebt, false);\r\n        } else { //calculate normally\r\n            // uint deltaSeconds = 2595000; //for testing and demo (30 days)\r\n        \r\n            uint deltaSeconds = borrowers[borrower].time - block.timestamp;\r\n            updatedDebt += deltaSeconds * interestRatePerSecond * updatedDebt / floatFluff;\r\n            borrowers[borrower].runningDebt = updatedDebt;\r\n            borrowers[borrower].time = block.timestamp;\r\n        \r\n            // If debt is > 2*debt, true flag to requisition items\r\n            if (borrowers[borrower].runningDebt > borrowers[borrower].runningMax)\r\n                return (updatedDebt, true);\r\n            else \r\n                return(updatedDebt, false);\r\n        }\r\n    }\r\n    \r\n    // Function to log the requisition of all collateral from borrower -> owner\r\n    function seizeCollateral(address payable borrower) internal {\r\n        for(uint i=0; i < borrowers[borrower].items.length; i++) {\r\n            if (borrowers[borrower].items[i].siezed == false) {\r\n                _ledger.transferItem(\r\n                    borrower, \r\n                    owner, \r\n                    borrowers[borrower].items[i].ticketCode\r\n                );   \r\n                borrowers[borrower].items[i].siezed = true;\r\n            }\r\n        }\r\n    }\r\n    \r\n    // Function to log the release of all collateral from owner -> borrower\r\n    function releaseCollateral(address payable borrower) internal {\r\n        for(uint i=0; i < borrowers[borrower].items.length; i++) {\r\n            if (borrowers[borrower].items[i].siezed == true) {\r\n                _ledger.transferItem(\r\n                    owner, \r\n                    borrower, \r\n                    borrowers[borrower].items[i].ticketCode\r\n                );   \r\n                borrowers[borrower].items[i].siezed = false;\r\n            }\r\n        }\r\n    }\r\n    \r\n    // Override virtual function to call selfdestruct on ledger as well\r\n    function destroy() public isOwner virtual override {\r\n        _ledger.destroy();\r\n        selfdestruct(owner);\r\n    }\r\n    \r\n    // Public view functions for unit/integration testing\r\n    function getOwner() public view returns(address) { return(owner); }\r\n    \r\n    function getInterestRatePerSecond() public view returns(uint) {\r\n        return(interestRatePerSecond);\r\n    }\r\n\r\n    function getFloatFluff() public view returns(uint) {\r\n        return(floatFluff);\r\n    }\r\n    \r\n    function getTicketAddress(string memory ticketCode) public view returns(address) {\r\n        return applicationQueue[ticketCode];\r\n    }\r\n    \r\n    function getRunningDebt(address borrowerAddress) public view returns(uint) {\r\n        return(borrowers[borrowerAddress].runningDebt);\r\n    }\r\n\r\n    function getRunningMax(address borrowerAddress) public view returns(uint) {\r\n        return(borrowers[borrowerAddress].runningMax);\r\n    }\r\n\r\n    // Is the same as updateDebt() function but can adjust time passed and is public\r\n    // Used for unit/integration testing w/ truffle\r\n    function updateDebtWithTime(address payable borrower, uint timePassed) public returns(uint) {\r\n        // Check for debt existance\r\n        require(borrowers[borrower].runningDebt > 0, \"This address has no debt.\");\r\n\r\n        // Calculate current running debt at time of payment\r\n        uint updatedDebt = borrowers[borrower].runningDebt;\r\n        \r\n        //if borrower's assets are already requisitioned, stop calculating interest\r\n        if (borrowers[borrower].items[0].siezed == true){\r\n            return(updatedDebt);\r\n        } else { //calculate normally\r\n            // uint deltaSeconds = 2595000; //for testing and demo (30 days)\r\n        \r\n            // uint deltaSeconds = borrowers[borrower].time - block.timestamp;\r\n            updatedDebt += timePassed * interestRatePerSecond * updatedDebt / floatFluff;\r\n            borrowers[borrower].runningDebt = updatedDebt;\r\n            borrowers[borrower].time = block.timestamp;\r\n        \r\n            // If debt is > 2*debt, true flag to requisition items\r\n            if (borrowers[borrower].runningDebt > borrowers[borrower].runningMax)\r\n                return (updatedDebt);\r\n            else \r\n                return(updatedDebt);\r\n        }\r\n    }\r\n}",
  "sourcePath": "C:/Users/Zombie/Documents/School/2020/493-BlockChain/Assignment04/pawn_contract/contracts/PawnContract.sol",
  "compiler": {
    "name": "solc",
    "version": "0.7.4+commit.3f05b770.Emscripten.clang"
  },
  "schemaVersion": "3.3.2",
  "updatedAt": "2020-12-09T03:28:30.816Z",
  "devdoc": {
    "kind": "dev",
    "methods": {},
    "version": 1
  },
  "userdoc": {
    "kind": "user",
    "methods": {},
    "version": 1
  }
}